:100000000C945E000C9400000C9400000C94000012
:100010000C9400000C9400000C9400000C94000060
:100020000C9400000C9400000C9400000C9442030B
:100030000C9400000C9400000C9400000C94000040
:100040000C9400000C9400000C9400000C94000030
:100050000C9400001027E80364000A00010000105F
:100060000001100001000F000E0D0102030C040539
:10007000060B0708090A456E746572205061737398
:10008000776F72643A0053797374656D20537461AD
:1000900072746564000001002D4E414E00494E46C9
:1000A000000010007F0266001000600276000F0062
:1000B000700286000100AC0296000000F894EE2762
:1000C000ECBBF1E0F5BFE5BF8DE0A2E0BB27ED930F
:1000D0008A95E9F780E098E0A0E6ED930197E9F7CB
:1000E000E2EAF0E085919591009761F0A591B591D4
:1000F00005901590BF01F00105900D920197E1F771
:10010000FB01F0CFEFE5EDBFE8E0EEBFC0E6D2E0E7
:100110000C942F020E948B03909803C00E948B03C3
:10012000909A919A83E08A95F1F7919880E991E00D
:100130000197F1F7E2B3EF70AE2FE881E295E07F2F
:10014000EA2BE2BB919A83E08A95F1F791980E949D
:10015000940321960895A4E1B0E00E94FF03A2E079
:10016000D9DFA8E2D7DFACE0D5DFA6E0D3DFA1E09E
:10017000D1DF0E9494030895BA93AA931A930A9325
:1001800000E010E0F801AA81BB81AE0FBF1FEC9127
:10019000E03051F0F801AA81BB81AE0FBF1FAC91D6
:1001A000BDDF0F5F1F4FEECF1981088124960895A0
:1001B000A1E0B0DF0E949403A0E8ACDF0895EFE077
:1001C000E4BBE0EFE5BB08950E94980321F005C071
:1001D0000E94980311F0E1E00895E0E008951A9379
:1001E0000A93F6DFE03009F445C010E01430E8F57A
:1001F000E12FA1E00E94BD05E095E5BB8DE08A9569
:10020000F1F7E3B3F0E00E94C505E17031F4E4E0FA
:10021000E19FF001E158FD4F0081E3B3F0E0F59577
:10022000E7950E94C505E17031F4E4E0E19FF0013B
:10023000E058FD4F0081E3B3F0E00E94C9050E9441
:10024000C505E17031F4E4E0E19FF001EF57FD4FA7
:100250000081E3B30E94A10331F4E4E0E19FF001E7
:10026000EE57FD4F00811F5FC1CFAEDFE030E9F3F5
:10027000E02F01C0EFEF099119910895D19AD99A11
:10028000D898D89AD998D898D89AD99AD8980895B9
:10029000AA931A930A9300E0D19A8DE08A95F1F718
:1002A00010E8113060F0D898EA81E12319F0D99A6A
:1002B000D99A01C0D998D89A0E94A803F2CFD898A9
:1002C000D1980E94B0030E2F19C0AA931A930A93D3
:1002D00000E0D19810E8113048F00E94B003E130FE
:1002E00009F4012BD8980E94A803F5CFD19AEA818E
:1002F000E03011F4D99A01C0D998D89AD898E02F53
:100300001981088123960895BA93AA930E9436060C
:10031000B5DFAC81BDDFE9B3F0E0F595E795E170BD
:10032000E130C9F3A1E0D1DF1E2FA1E0CEDF0E2F17
:10033000A0E0CBDF3E2FF12FE0E0DF01E02FF0E087
:10034000EA2BFB2B0E943B0626960895AA936497FE
:10035000EC89F0E0309709F06BC0A5E00E94B7038C
:10036000ADEBB2E586E19DE30E94F904A5ECBEEF9A
:1003700082E090EC0E94A9047F936F93FF93EF9328
:100380000E94C303A889B9898A899B890E94F305C1
:100390000E946F04A6EFB4E286ED95EB0E94F9048B
:1003A000AF91BF918F919F910E94A904EC83FD832F
:1003B0006E837F830E94C303EC87FD876E877F87F0
:1003C000A4EFB1E00E94FF03A3E0B0E09DDF0E9434
:1003D000C3030E946F040E94C8030E94CD030E94C1
:1003E000A9040E943106A0E0B0E088EC91E40E94EC
:1003F000A2047F936F93FF93EF93EC85FD856E8549
:100400007F850E946F04ACEAB5EC87EA98E30E940E
:10041000F9040E94C8030E94A904AF91BF918F9173
:100420009F910E94F904AC81BD818E819F810BC098
:10043000E130A0E0FA0769F4A3E00E94B7030E944C
:10044000C8030E94CD030E94A904E887F9876A8740
:100450007B87E885F9856A857B8565960895EFEF4A
:10046000E1BB79DEACDEA4DEA0E6B2E085DEA0EC86
:1004700051DE44245524E4E0F0E04E165F06C4F457
:10048000AEDE9E2EEFEFE915D9F3E92DF0E0FA93F9
:10049000EA93A4E9B2E00E945D03A4E9B2E06CDE55
:1004A000F201E157FD4F9082F20131962F01E3CF27
:1004B0007FDEA0918F02A13089F4A0919002A2303A
:1004C00069F4A0919102A33049F4A0E7B2E054DEB0
:1004D000ACE2B1E00E94FF036BDE01C0C4CF3E9AE4
:1004E000399A379AE6B1E660E6B9E1E0EABBE2E0C4
:1004F000EBBBE6EBE7BBE6E1E8BB6E9AEDB1EDB92D
:10050000EDB1EDB9EDB1E360EDB9EEB1EEB9EDB13C
:10051000EDB96C9AE2E0E3BFE0E0E2BFE9B7E16089
:10052000E9BF7894A1E012DFE093A002F093A1026A
:100530006093A2027093A302A0E008DFE093A402FC
:10054000F093A5026093A6027093A7028DD00E943B
:10055000D4030E94DD03E0E0F0E060EA70E40E9472
:10056000F904DF01CB01E0E0F0EC6FE774E40E94F6
:1005700047050E94D4030E94E603A0E0B1E080E0BA
:1005800090E00E94F305DF01CB01E2B7F0E00E94AA
:10059000CE050E94AC05AF37E4E8BE07EEE18E075A
:1005A000E0E09E070CF45EC0E0E0E0939C02E09384
:1005B0009D02E0939E02E0939F02E2BFC198E0910A
:1005C000A402F091A5026091A6027091A7020E9478
:1005D0003604EFB9EEB10E94A103E1F38FB0C19AE6
:1005E000C298E091A002F091A1026091A2027091E4
:1005F000A3020E943604EFB9EEB10E94A103E1F319
:100600008FB0C29AC4980E94EF0310F4E0E023C0B8
:100610000E94EF0309F008F406C00E94F70311F0EE
:1006200008F001C001C002C0E1E015C00E94F7035C
:1006300009F008F40CC00E94DD03E0E0F0E060E0A7
:1006400070E40E948C0511F008F001C001C002C0E6
:10065000E2E001C0E3E0EFB9EEB10E94A103E1F3F3
:100660008FB0C49A5FCFFFCF8BE18A95F1F7369AAE
:10067000349BFECF349AE4B1F5B1662777270E9408
:100680006F0408956A937A93EA93FA93EFB7EA9323
:100690000E94E603EF5FFF4F6F4F7F4FE0939C0296
:1006A000F0939D0260939E0270939F02E991EFBFC9
:1006B000F991E991799169911895BA93AA93A991C1
:1006C000B991E991F99130962AF4E095F095319637
:1006D0006DE26D93E89480E197E20DD088EE93E0AF
:1006E0000AD084E6992707D08AE005D06E2F10D073
:1006F00066276C9308956627E817F90720F063953D
:10070000E81BF90BC9F7662311F416F008956894F5
:10071000605D6D930895AA93E2B3EF70AE2FE88108
:10072000E07FEA2BE2BB0895A2E0B0E00C94FF0367
:10073000E0EFE5BB8DE08A95F1F7E3B3E07FE03FC2
:100740000895F0E00E94C7050E94C505E170089574
:10075000A12FB0E0E2E0F0E00E940B061E2F08950A
:10076000D89AE9B3F0E0F595E795E1700895B0E027
:100770000E94840166277727E88BF98B6A8B7B8B35
:100780000E946F040895E889F9896A897B89089530
:10079000AAE0B7ED83E29CE308950E94F904A6E67F
:1007A000B6E680E292EC0895E093A802F093A902E5
:1007B0006093AA027093AB020895A091A802B09131
:1007C000A9028091AA029091AB020895E0919C0247
:1007D000F0919D0260919E0270919F020895EDDF5D
:1007E000EAE0F7ED63E27CE30E948C050895E5DF23
:1007F000E0E0F0E060E87FE30E948C050895109649
:1008000039F080ED97E00197F1F7A8951197C9F7B6
:100810000895552342F4503811F4E0FF04C0319696
:10082000691F791F6BF050E8572711F45F93CFC011
:100830005F3F31F0660F000C57956795752F08954F
:100840005F9300200AF0CFC0C8C050E8192E1522CF
:10085000880F991F9527550F879550E8072E052279
:10086000660F771F7527550F67950895689401C027
:10087000E8945F93F2DF703818F07F3F08F4A7C068
:1008800056E1571BAAF4519558300EF4593030F008
:10089000EFEFFFEF6FEF7FE777F91AC07727552368
:1008A000B9F0EE0FFF1F661F771F5A95D1F710C0E2
:1008B0007727583028F0EF2FF62F672F5850F9CFB1
:1008C000552331F076956795F795E7955A95D1F7C9
:1008D00000200AF44AD15F910895689401C0E89419
:1008E000309760407040B1F0002426F0772312F476
:1008F00000943BD1172E7EE1112032F07A95EE0F55
:10090000FF1F661F111CF9CFEF2FF62F612D5F938C
:100910008ADF5F9108954F93AF01FD01DA01AB01CA
:10092000BC01CA01402D012C142E4F910895EA0FED
:10093000FB1F681F0895E095F0956095EF5FFF4FEE
:100940006F4F08955F9381DF903871F150E815265D
:1009500004C05F937ADF903839F1703821F1572F56
:10096000591B2BF112F4D7DFFACF583118F0AA2710
:10097000BB278827583028F0AB2FB82F882758502E
:10098000F9CF552329F08695B795A7955A95D9F7AC
:10099000502D512572F0CBDF38F46795F795E79528
:1009A000739513F420C0B7DF3EDF5F910895D8F749
:1009B000FBCFEA1BFB0B680B51F010F40094BBDF7C
:1009C000662392F3EE0FFF1F661F7A95CBF7EE2793
:1009D000FF27662777275F910895EFEFFFEF6FE717
:1009E0007FEF5F910895EFEFFFEF6FE77FE75F9194
:1009F00008955F932ADF703851F3903841F3012452
:100A00000894791F23F41CF300203AF3ECCF0F92E3
:100A10001F932F933F934F93112722279927689F66
:100A2000A0018F9F302D410D591F6B9F300D411D2F
:100A3000591F8E9F27D0BF9F25D06A9F23D0BE9F6E
:100A40001DD0AF9F1BD0AE9F110D291F391F491F0D
:100A5000591FE32FF42F652F522F4F913F912F9164
:100A60001F910F9066232AF0550FEE1FFF1F661F80
:100A700002C073954BF2CDDE5F910895100D211DDC
:100A8000391F02C0200D311D491F591F08955F9362
:100A9000DCDE703821F411200AF49FCFA4CF903807
:100AA00009F495CF01240894970B1BF4D4F300208C
:100AB000F3CF792F1F932F933F934F931124112737
:100AC000222733274427552790E2AE17BF07860712
:100AD000410730F0AE1BBF0B860B410B089401C0E1
:100AE0008894551F221F331F111CAA1FBB1F881F6C
:100AF000441F9A9551F7F901612D4F913F912F9124
:100B00001F91662332F0550FEE1FFF1F661F7A9567
:100B100043F27FDE5F91089599239AF0772342F0A4
:100B2000971748F029F4AE17BF07860720F031F079
:100B300098948894089598940894089518948894A3
:100B400008957723C2F7971798F3A9F7EA17FB07D9
:100B5000680788F399F3ECCFAE0FBF1F861F971F6E
:100B60000895F195E195F0400895F09560957095A0
:100B7000E195FF4F6F4F7F4F0895EE230E2EEA2F22
:100B800019F0EE0F0A94E9F70895F595E795F595B4
:100B9000E795F595E795F595E79508956F2F660F1D
:100BA000660B762F08957A9F702D6B9F700DF89FBE
:100BB000700DE99F700D6A9F602D710DFB9F600D98
:100BC000711DE89F600D711D8827FA9FF02D610D42
:100BD000781FEB9FF00D611D781FEA9FE02DF10D4E
:100BE000681F781F08952AD0DEDF0EF4BEDF089557
:100BF0000024112490E1AA0FBB1F001C111C0E1A27
:100C00001F0A18F40E0E1F1E01C0A1609A9599F7D5
:100C1000FD01D001089504D0EBDF0EF4A2DF0895AA
:100C2000E894F7FF02C09DDF6894B7FF06C0A09567
:100C3000B095119600F8039400FA0895E89477FFB0
:100C400002C093DF689497FF0BC00024A095B09575
:100C5000809590951196801D901D00F8039400FAE0
:100C60000895E883F9836A837B8308953A932A93EE
:100C70001A930A9308953B812A8119810881089566
:00000001FF
