:0A0000000C943D000C9400000C94D9
:10000A0000000C9400000C9400000C9400000C9466
:10001A0000000C9400000C9400000C9400000C9456
:10002A0000000C9400000C9400000C9400000C9446
:10003A0000000C9400000C9400000C9400000C9436
:10004A0000000C9400000C9400001027E8036400E0
:10005A000A000100001000011000010001002D4EED
:10006A00414E00494E460000010068026600000049
:10007A00F894EE27ECBBF1E0F5BFE5BF8DE0A2E016
:10008A00BB27ED938A95E9F780E098E0A0E6ED9327
:10009A000197E9F7E2E7F0E085919591009761F021
:1000AA00A591B59105901590BF01F00105900D92AB
:1000BA000197E1F7FB01F0CFEFE5EDBFE8E0EEBF16
:1000CA00C0E6D2E00C94A2000E945501A89803C091
:1000DA000E945501A89AA99A83E08A95F1F7A998EE
:1000EA0080E991E00197F1F7E5B3EF70AE2FE8816F
:1000FA00E295E07FEA2BE5BBA99A83E08A95F1F7BE
:10010A00A9980E945E0121960895A4E1B0E00E9498
:10011A006201A2E0D9DFA8E2D7DFACE0D5DFA6E032
:10012A00D3DFA1E0D1DF0E945E010895A1E0CCDF18
:10013A000E945E01A0E8C8DF0895BB9A8F9A6E9A62
:10014A00EDB1EDB9EDB1EDB9EDB1E360EDB9EEB1F7
:10015A00EEB9EDB1EDB9EDB1EDB9EBE6E3BFE0E033
:10016A00E2BFECBFE2BDECE6E5BDE0E0E4BDE3BD25
:10017A00EFEFE4BBCADFDADFE0E3EFB9EEB1F0E0BC
:10018A000E946E010E946C01E170C1F3EFB1F0E0D0
:10019A00FA93EA93A0E6B2E00E9427014424552488
:1001AA00A0E6B2E00E941B014E165F0658F4A0E6D4
:1001BA00B2E0A40DB51DAC918BDFF20131962F018F
:1001CA003197EECFEFB1EA3190F0E4E6ECBFEFB150
:1001DA00EF3110F0E6E9ECBFEFB1E43210F0E8ECF1
:1001EA00ECBFEFB1E93210F0EAEFECBF02C0E0E099
:1001FA00ECBFEFB1E43190F4E4E6E3BDEFB1E031F6
:10020A0010F0E6E9E3BDEFB1EA3010F4E8ECE3BD43
:10021A00EFB1E53010F4EAEFE3BD02C0E0E0E3BD80
:10022A00A8EEB3E00E946201A6CFFFCFBA93AA93C9
:10023A00A991B991EE27FF276D91662311F03196A6
:10024A00FBCF0895BA93AA93A991B991E991F9912B
:10025A0030962AF4E095F09531966DE26D93E89424
:10026A0080E197E20DD088EE93E00AD084E69927E0
:10027A0007D08AE005D06E2F10D066276C930895B8
:10028A006627E817F90720F06395E81BF90BC9F709
:10029A00662311F416F008956894605D6D930895CD
:1002AA00AA93E5B3EF70AE2FE881E07FEA2BE5BBB6
:1002BA000895A2E0B0E00C946201109639F080ED46
:1002CA0097E00197F1F7A8951197C9F70895F59561
:1002DA00E795F595E795F595E795F595E7950895E9
:00000001FF
