:080000000C943D000C9400007B
:100008000C9400000C9400000C9400000C94000068
:100018000C9400000C9400000C9400000C94000058
:100028000C9400000C9400000C9400000C94000048
:100038000C9400000C9400000C9400000C94000038
:100048000C9400000C9400000C9400001027E803A6
:1000580064000A0001000010000110000100010006
:100068002D4E414E00494E460000010068026600D0
:100078000000F894EE27ECBBF1E0F5BFE5BF8DE09A
:10008800A2E0BB27ED938A95E9F780E098E0A0E627
:10009800ED930197E9F7E2E7F0E0859195910097F4
:1000A80061F0A591B59105901590BF01F0010590FB
:1000B8000D920197E1F7FB01F0CFEFE5EDBFE8E026
:1000C800EEBFC0E6D2E00C94A2000E943401A898CA
:1000D80003C00E943401A89AA99A83E08A95F1F78F
:1000E800A99880E991E00197F1F7E5B3EF70AE2F99
:1000F800E881E295E07FEA2BE5BBA99A83E08A953F
:10010800F1F7A9980E943D0121960895A4E1B0E075
:100118000E944101A2E0D9DFA8E2D7DFACE0D5DF39
:10012800A6E0D3DFA1E0D1DF0E943D010895A1E060
:10013800CCDF0E943D01A0E8C8DF08956E9AEDB1BA
:10014800EDB9EDB1EDB9EDB1E360EDB9EEB1EEB9F0
:10015800EDB1EDB9EDB1EDB9BB9AECE6E3BFE0E086
:10016800E2BFE9BFEFEFE4BBD1DFE1DFE0E3EFB9E6
:10017800EEB1F0E00E944D010E944B01E170C1F325
:10018800EFB1F0E0FA93EA93A0E6B2E00E9406012C
:10019800EFB1E03011F4E0E00EC0EFB1E13011F45E
:1001A800E4E609C0EFB1E23011F4E8EC04C0EFB1C5
:1001B800E33011F4E5EFECBF44245524A0E6B2E0A7
:1001C8000E94FA004E165F0658F4A0E6B2E0A40DAD
:1001D800B51DAC917EDFF20131962F013197EECF3C
:1001E800A4EFB1E00E944101C0CFFFCFBA93AA9318
:1001F800A991B991EE27FF276D91662311F03196E9
:10020800FBCF0895BA93AA93A991B991E991F9916D
:1002180030962AF4E095F09531966DE26D93E89466
:1002280080E197E20DD088EE93E00AD084E6992722
:1002380007D08AE005D06E2F10D066276C930895FA
:100248006627E817F90720F06395E81BF90BC9F74B
:10025800662311F416F008956894605D6D9308950F
:10026800AA93E5B3EF70AE2FE881E07FEA2BE5BBF8
:100278000895A2E0B0E00C944101109639F080EDA9
:1002880097E00197F1F7A8951197C9F70895F595A3
:10029800E795F595E795F595E795F595E79508952B
:00000001FF
