:040000000C9450000C
:100004000C9400000C9400000C9400000C9400006C
:100014000C9400000C9400000C9400000C9400005C
:100024000C9400000C9400000C9400000C9400004C
:100034000C9400000C9400000C9400000C9400003C
:100044000C9400000C9400000C9400000C9400002C
:100054001027E80364000A000100001000011000EA
:10006400010068756D69646974790027283A27006E
:1000740027293A27000001002D4E414E00494E46E3
:100084000000090060026600050069026F000500B7
:100094006E02740001007B027A000000F894EE27DF
:1000A400ECBBF1E0F5BFE5BF8DE0A2E0BB27ED932B
:1000B4008A95E9F780E098E0A0E6ED930197E9F7E7
:1000C400E6E8F0E085919591009761F0A591B591EE
:1000D40005901590BF01F00105900D920197E1F78D
:1000E400FB01F0CFEFE5EDBFE8E0EEBFC0E6D2E004
:1000F4000C94D1000E944A01A89803C00E944A01AE
:10010400A89AA99A83E08A95F1F7A99880E991E0E1
:100114000197F1F7E5B3EF70AE2FE881E295E07F48
:10012400EA2BE5BBA99A83E08A95F1F7A9980E9486
:10013400530121960895A4E1B0E00E945701A2E082
:10014400D9DFA8E2D7DFACE0D5DFA6E0D3DFA1E0BA
:10015400D1DF0E9453010895BA93AA931A930A9384
:1001640000E010E0F801AA81BB81AE0FBF1FEC9143
:10017400E03051F0F801AA81BB81AE0FBF1FAC91F2
:10018400BDDF0F5F1F4FEECF1981088124960895BC
:10019400A1E0B0DF0E945301A0E8ACDF08956E9A9D
:1001A400EDB1EDB9EDB1EDB9EDB1E360EDB9EEB19D
:1001B400EEB9EDB1EDB9EDB1EDB9EBE6E3BFE0E0D9
:1001C400E2BFECBFE2BDECE6E5BDE0E0E4BDE3BDCB
:1001D400EFEFE4BBB0DFA0E6B2E0BEDFACE2B1E03B
:1001E4000E945701D5DFD4DFE0E3EFB9EEB1F0E0D0
:1001F4000E9463010E946101E170C1F3EFB1F0E07C
:10020400FA93EA93A3E7B2E00E941C01EFB1EE3146
:1002140018F0EFB1E33308F003C0A9E6B2E003C07D
:10022400B7DFAEE6B2E098DFA4EFB1E00E94570179
:10023400DACFFFCFBA93AA93A991B991E991F99131
:1002440030962AF4E095F09531966DE26D93E8943A
:1002540080E197E20DD088EE93E00AD084E69927F6
:1002640007D08AE005D06E2F10D066276C930895CE
:100274006627E817F90720F06395E81BF90BC9F71F
:10028400662311F416F008956894605D6D930895E3
:10029400AA93E5B3EF70AE2FE881E07FEA2BE5BBCC
:1002A4000895A2E0B0E00C945701109639F080ED67
:1002B40097E00197F1F7A8951197C9F70895F59577
:1002C400E795F595E795F595E795F595E7950895FF
:00000001FF
